{
	"contracts/ExampleContract.sol": {
		"ExampleContract": {
			"abi": [
				{
					"inputs": [],
					"name": "whoami",
					"outputs": [
						{
							"internalType": "address",
							"name": "",
							"type": "address"
						},
						{
							"internalType": "address",
							"name": "",
							"type": "address"
						}
					],
					"stateMutability": "view",
					"type": "function"
				}
			],
			"devdoc": {
				"kind": "dev",
				"methods": {},
				"version": 1
			},
			"evm": {
				"assembly": "    /* \"contracts/ExampleContract.sol\":622:824  contract ExampleContract {... */\n  mstore(0x40, 0x80)\n  callvalue\n  dup1\n  iszero\n  tag_1\n  jumpi\n  0x00\n  dup1\n  revert\ntag_1:\n  pop\n  dataSize(sub_0)\n  dup1\n  dataOffset(sub_0)\n  0x00\n  codecopy\n  0x00\n  return\nstop\n\nsub_0: assembly {\n        /* \"contracts/ExampleContract.sol\":622:824  contract ExampleContract {... */\n      mstore(0x40, 0x80)\n      callvalue\n      dup1\n      iszero\n      tag_1\n      jumpi\n      0x00\n      dup1\n      revert\n    tag_1:\n      pop\n      jumpi(tag_2, lt(calldatasize, 0x04))\n      shr(0xe0, calldataload(0x00))\n      dup1\n      0xb3b36bb3\n      eq\n      tag_3\n      jumpi\n    tag_2:\n      0x00\n      dup1\n      revert\n        /* \"contracts/ExampleContract.sol\":654:821  function whoami() public view returns (address,address) {... */\n    tag_3:\n      tag_4\n      tag_5\n      jump\t// in\n    tag_4:\n      mload(0x40)\n      tag_6\n      swap3\n      swap2\n      swap1\n      tag_7\n      jump\t// in\n    tag_6:\n      mload(0x40)\n      dup1\n      swap2\n      sub\n      swap1\n      return\n    tag_5:\n        /* \"contracts/ExampleContract.sol\":693:700  address */\n      0x00\n        /* \"contracts/ExampleContract.sol\":701:708  address */\n      dup1\n        /* \"contracts/ExampleContract.sol\":715:729  address sender */\n      0x00\n        /* \"contracts/ExampleContract.sol\":732:742  msg.sender */\n      caller\n        /* \"contracts/ExampleContract.sol\":715:742  address sender = msg.sender */\n      swap1\n      pop\n        /* \"contracts/ExampleContract.sol\":753:770  address _Contract */\n      0x00\n        /* \"contracts/ExampleContract.sol\":780:784  this */\n      address\n        /* \"contracts/ExampleContract.sol\":753:785  address _Contract =address(this) */\n      swap1\n      pop\n        /* \"contracts/ExampleContract.sol\":798:804  sender */\n      dup2\n        /* \"contracts/ExampleContract.sol\":806:815  _Contract */\n      dup2\n        /* \"contracts/ExampleContract.sol\":790:816  return (sender, _Contract) */\n      swap4\n      pop\n      swap4\n      pop\n      pop\n      pop\n        /* \"contracts/ExampleContract.sol\":654:821  function whoami() public view returns (address,address) {... */\n      swap1\n      swap2\n      jump\t// out\n        /* \"#utility.yul\":7:133   */\n    tag_9:\n        /* \"#utility.yul\":44:51   */\n      0x00\n        /* \"#utility.yul\":84:126   */\n      0xffffffffffffffffffffffffffffffffffffffff\n        /* \"#utility.yul\":77:82   */\n      dup3\n        /* \"#utility.yul\":73:127   */\n      and\n        /* \"#utility.yul\":62:127   */\n      swap1\n      pop\n        /* \"#utility.yul\":7:133   */\n      swap2\n      swap1\n      pop\n      jump\t// out\n        /* \"#utility.yul\":139:235   */\n    tag_10:\n        /* \"#utility.yul\":176:183   */\n      0x00\n        /* \"#utility.yul\":205:229   */\n      tag_15\n        /* \"#utility.yul\":223:228   */\n      dup3\n        /* \"#utility.yul\":205:229   */\n      tag_9\n      jump\t// in\n    tag_15:\n        /* \"#utility.yul\":194:229   */\n      swap1\n      pop\n        /* \"#utility.yul\":139:235   */\n      swap2\n      swap1\n      pop\n      jump\t// out\n        /* \"#utility.yul\":241:359   */\n    tag_11:\n        /* \"#utility.yul\":328:352   */\n      tag_17\n        /* \"#utility.yul\":346:351   */\n      dup2\n        /* \"#utility.yul\":328:352   */\n      tag_10\n      jump\t// in\n    tag_17:\n        /* \"#utility.yul\":323:326   */\n      dup3\n        /* \"#utility.yul\":316:353   */\n      mstore\n        /* \"#utility.yul\":241:359   */\n      pop\n      pop\n      jump\t// out\n        /* \"#utility.yul\":365:697   */\n    tag_7:\n        /* \"#utility.yul\":486:490   */\n      0x00\n        /* \"#utility.yul\":524:526   */\n      0x40\n        /* \"#utility.yul\":513:522   */\n      dup3\n        /* \"#utility.yul\":509:527   */\n      add\n        /* \"#utility.yul\":501:527   */\n      swap1\n      pop\n        /* \"#utility.yul\":537:608   */\n      tag_19\n        /* \"#utility.yul\":605:606   */\n      0x00\n        /* \"#utility.yul\":594:603   */\n      dup4\n        /* \"#utility.yul\":590:607   */\n      add\n        /* \"#utility.yul\":581:587   */\n      dup6\n        /* \"#utility.yul\":537:608   */\n      tag_11\n      jump\t// in\n    tag_19:\n        /* \"#utility.yul\":618:690   */\n      tag_20\n        /* \"#utility.yul\":686:688   */\n      0x20\n        /* \"#utility.yul\":675:684   */\n      dup4\n        /* \"#utility.yul\":671:689   */\n      add\n        /* \"#utility.yul\":662:668   */\n      dup5\n        /* \"#utility.yul\":618:690   */\n      tag_11\n      jump\t// in\n    tag_20:\n        /* \"#utility.yul\":365:697   */\n      swap4\n      swap3\n      pop\n      pop\n      pop\n      jump\t// out\n\n    auxdata: 0xa2646970667358221220a033f9e054628e5961ec9a12160a518020c1d081f866093511dddbde036a427d64736f6c63430008190033\n}\n",
				"bytecode": {
					"linkReferences": {},
					"object": "6080604052348015600e575f80fd5b5060ef8061001b5f395ff3fe6080604052348015600e575f80fd5b50600436106026575f3560e01c8063b3b36bb314602a575b5f80fd5b60306045565b604051603c9291906096565b60405180910390f35b5f805f3390505f30905081819350935050509091565b5f73ffffffffffffffffffffffffffffffffffffffff82169050919050565b5f608282605b565b9050919050565b609081607a565b82525050565b5f60408201905060a75f8301856089565b60b260208301846089565b939250505056fea2646970667358221220a033f9e054628e5961ec9a12160a518020c1d081f866093511dddbde036a427d64736f6c63430008190033",
					"opcodes": "PUSH1 0x80 PUSH1 0x40 MSTORE CALLVALUE DUP1 ISZERO PUSH1 0xE JUMPI PUSH0 DUP1 REVERT JUMPDEST POP PUSH1 0xEF DUP1 PUSH2 0x1B PUSH0 CODECOPY PUSH0 RETURN INVALID PUSH1 0x80 PUSH1 0x40 MSTORE CALLVALUE DUP1 ISZERO PUSH1 0xE JUMPI PUSH0 DUP1 REVERT JUMPDEST POP PUSH1 0x4 CALLDATASIZE LT PUSH1 0x26 JUMPI PUSH0 CALLDATALOAD PUSH1 0xE0 SHR DUP1 PUSH4 0xB3B36BB3 EQ PUSH1 0x2A JUMPI JUMPDEST PUSH0 DUP1 REVERT JUMPDEST PUSH1 0x30 PUSH1 0x45 JUMP JUMPDEST PUSH1 0x40 MLOAD PUSH1 0x3C SWAP3 SWAP2 SWAP1 PUSH1 0x96 JUMP JUMPDEST PUSH1 0x40 MLOAD DUP1 SWAP2 SUB SWAP1 RETURN JUMPDEST PUSH0 DUP1 PUSH0 CALLER SWAP1 POP PUSH0 ADDRESS SWAP1 POP DUP2 DUP2 SWAP4 POP SWAP4 POP POP POP SWAP1 SWAP2 JUMP JUMPDEST PUSH0 PUSH20 0xFFFFFFFFFFFFFFFFFFFFFFFFFFFFFFFFFFFFFFFF DUP3 AND SWAP1 POP SWAP2 SWAP1 POP JUMP JUMPDEST PUSH0 PUSH1 0x82 DUP3 PUSH1 0x5B JUMP JUMPDEST SWAP1 POP SWAP2 SWAP1 POP JUMP JUMPDEST PUSH1 0x90 DUP2 PUSH1 0x7A JUMP JUMPDEST DUP3 MSTORE POP POP JUMP JUMPDEST PUSH0 PUSH1 0x40 DUP3 ADD SWAP1 POP PUSH1 0xA7 PUSH0 DUP4 ADD DUP6 PUSH1 0x89 JUMP JUMPDEST PUSH1 0xB2 PUSH1 0x20 DUP4 ADD DUP5 PUSH1 0x89 JUMP JUMPDEST SWAP4 SWAP3 POP POP POP JUMP INVALID LOG2 PUSH5 0x6970667358 0x22 SLT KECCAK256 LOG0 CALLER 0xF9 0xE0 SLOAD PUSH3 0x8E5961 0xEC SWAP11 SLT AND EXP MLOAD DUP1 KECCAK256 0xC1 0xD0 DUP2 0xF8 PUSH7 0x93511DDDBDE03 PUSH11 0x427D64736F6C6343000819 STOP CALLER "
				},
				"gasEstimates": {
					"creation": {
						"codeDepositCost": "47800",
						"executionCost": "97",
						"totalCost": "47897"
					},
					"external": {
						"whoami()": "infinite"
					}
				},
				"methodIdentifiers": {
					"whoami()": "b3b36bb3"
				}
			},
			"storageLayout": {
				"storage": [],
				"types": null
			},
			"userdoc": {
				"kind": "user",
				"methods": {},
				"version": 1
			}
		}
	}
}